{
  "contractName": "collection",
  "abi": [
    {
      "inputs": [],
      "stateMutability": "nonpayable",
      "type": "constructor"
    },
    {
      "anonymous": false,
      "inputs": [
        {
          "indexed": true,
          "internalType": "address",
          "name": "owner",
          "type": "address"
        },
        {
          "indexed": true,
          "internalType": "address",
          "name": "approved",
          "type": "address"
        },
        {
          "indexed": true,
          "internalType": "uint256",
          "name": "tokenId",
          "type": "uint256"
        }
      ],
      "name": "Approval",
      "type": "event"
    },
    {
      "anonymous": false,
      "inputs": [
        {
          "indexed": true,
          "internalType": "address",
          "name": "owner",
          "type": "address"
        },
        {
          "indexed": true,
          "internalType": "address",
          "name": "operator",
          "type": "address"
        },
        {
          "indexed": false,
          "internalType": "bool",
          "name": "approved",
          "type": "bool"
        }
      ],
      "name": "ApprovalForAll",
      "type": "event"
    },
    {
      "anonymous": false,
      "inputs": [
        {
          "indexed": true,
          "internalType": "address",
          "name": "previousOwner",
          "type": "address"
        },
        {
          "indexed": true,
          "internalType": "address",
          "name": "newOwner",
          "type": "address"
        }
      ],
      "name": "OwnershipTransferred",
      "type": "event"
    },
    {
      "anonymous": false,
      "inputs": [
        {
          "indexed": true,
          "internalType": "address",
          "name": "from",
          "type": "address"
        },
        {
          "indexed": true,
          "internalType": "address",
          "name": "to",
          "type": "address"
        },
        {
          "indexed": true,
          "internalType": "uint256",
          "name": "tokenId",
          "type": "uint256"
        }
      ],
      "name": "Transfer",
      "type": "event"
    },
    {
      "inputs": [
        {
          "internalType": "address",
          "name": "to",
          "type": "address"
        },
        {
          "internalType": "uint256",
          "name": "tokenId",
          "type": "uint256"
        }
      ],
      "name": "approve",
      "outputs": [],
      "stateMutability": "nonpayable",
      "type": "function"
    },
    {
      "inputs": [
        {
          "internalType": "address",
          "name": "owner",
          "type": "address"
        }
      ],
      "name": "balanceOf",
      "outputs": [
        {
          "internalType": "uint256",
          "name": "",
          "type": "uint256"
        }
      ],
      "stateMutability": "view",
      "type": "function",
      "constant": true
    },
    {
      "inputs": [
        {
          "internalType": "uint256",
          "name": "tokenId",
          "type": "uint256"
        }
      ],
      "name": "getApproved",
      "outputs": [
        {
          "internalType": "address",
          "name": "",
          "type": "address"
        }
      ],
      "stateMutability": "view",
      "type": "function",
      "constant": true
    },
    {
      "inputs": [
        {
          "internalType": "address",
          "name": "owner",
          "type": "address"
        },
        {
          "internalType": "address",
          "name": "operator",
          "type": "address"
        }
      ],
      "name": "isApprovedForAll",
      "outputs": [
        {
          "internalType": "bool",
          "name": "",
          "type": "bool"
        }
      ],
      "stateMutability": "view",
      "type": "function",
      "constant": true
    },
    {
      "inputs": [],
      "name": "name",
      "outputs": [
        {
          "internalType": "string",
          "name": "",
          "type": "string"
        }
      ],
      "stateMutability": "view",
      "type": "function",
      "constant": true
    },
    {
      "inputs": [],
      "name": "owner",
      "outputs": [
        {
          "internalType": "address",
          "name": "",
          "type": "address"
        }
      ],
      "stateMutability": "view",
      "type": "function",
      "constant": true
    },
    {
      "inputs": [
        {
          "internalType": "uint256",
          "name": "tokenId",
          "type": "uint256"
        }
      ],
      "name": "ownerOf",
      "outputs": [
        {
          "internalType": "address",
          "name": "",
          "type": "address"
        }
      ],
      "stateMutability": "view",
      "type": "function",
      "constant": true
    },
    {
      "inputs": [],
      "name": "renounceOwnership",
      "outputs": [],
      "stateMutability": "nonpayable",
      "type": "function"
    },
    {
      "inputs": [
        {
          "internalType": "address",
          "name": "from",
          "type": "address"
        },
        {
          "internalType": "address",
          "name": "to",
          "type": "address"
        },
        {
          "internalType": "uint256",
          "name": "tokenId",
          "type": "uint256"
        }
      ],
      "name": "safeTransferFrom",
      "outputs": [],
      "stateMutability": "nonpayable",
      "type": "function"
    },
    {
      "inputs": [
        {
          "internalType": "address",
          "name": "from",
          "type": "address"
        },
        {
          "internalType": "address",
          "name": "to",
          "type": "address"
        },
        {
          "internalType": "uint256",
          "name": "tokenId",
          "type": "uint256"
        },
        {
          "internalType": "bytes",
          "name": "_data",
          "type": "bytes"
        }
      ],
      "name": "safeTransferFrom",
      "outputs": [],
      "stateMutability": "nonpayable",
      "type": "function"
    },
    {
      "inputs": [
        {
          "internalType": "address",
          "name": "operator",
          "type": "address"
        },
        {
          "internalType": "bool",
          "name": "approved",
          "type": "bool"
        }
      ],
      "name": "setApprovalForAll",
      "outputs": [],
      "stateMutability": "nonpayable",
      "type": "function"
    },
    {
      "inputs": [
        {
          "internalType": "bytes4",
          "name": "interfaceId",
          "type": "bytes4"
        }
      ],
      "name": "supportsInterface",
      "outputs": [
        {
          "internalType": "bool",
          "name": "",
          "type": "bool"
        }
      ],
      "stateMutability": "view",
      "type": "function",
      "constant": true
    },
    {
      "inputs": [],
      "name": "symbol",
      "outputs": [
        {
          "internalType": "string",
          "name": "",
          "type": "string"
        }
      ],
      "stateMutability": "view",
      "type": "function",
      "constant": true
    },
    {
      "inputs": [
        {
          "internalType": "address",
          "name": "from",
          "type": "address"
        },
        {
          "internalType": "address",
          "name": "to",
          "type": "address"
        },
        {
          "internalType": "uint256",
          "name": "tokenId",
          "type": "uint256"
        }
      ],
      "name": "transferFrom",
      "outputs": [],
      "stateMutability": "nonpayable",
      "type": "function"
    },
    {
      "inputs": [
        {
          "internalType": "address",
          "name": "newOwner",
          "type": "address"
        }
      ],
      "name": "transferOwnership",
      "outputs": [],
      "stateMutability": "nonpayable",
      "type": "function"
    },
    {
      "inputs": [
        {
          "internalType": "uint256",
          "name": "tokenId",
          "type": "uint256"
        }
      ],
      "name": "mint",
      "outputs": [],
      "stateMutability": "nonpayable",
      "type": "function"
    },
    {
      "inputs": [
        {
          "internalType": "address",
          "name": "newOwner",
          "type": "address"
        }
      ],
      "name": "setOwner",
      "outputs": [],
      "stateMutability": "nonpayable",
      "type": "function"
    },
    {
      "inputs": [
        {
          "internalType": "uint256",
          "name": "tokenId",
          "type": "uint256"
        }
      ],
      "name": "tokenURI",
      "outputs": [
        {
          "internalType": "string",
          "name": "",
          "type": "string"
        }
      ],
      "stateMutability": "view",
      "type": "function",
      "constant": true
    },
    {
      "inputs": [],
      "name": "contractURI",
      "outputs": [
        {
          "internalType": "string",
          "name": "",
          "type": "string"
        }
      ],
      "stateMutability": "view",
      "type": "function",
      "constant": true
    }
  ],
  "bytecode": "0x60806040523480156200001157600080fd5b506040518060400160405280600f81526020017f4d4a202d20436f6c6c656374696f6e00000000000000000000000000000000008152506040518060400160405280600381526020017f4d4a4300000000000000000000000000000000000000000000000000000000008152508160009080519060200190620000969291906200020a565b508060019080519060200190620000af9291906200020a565b505050620000d2620000c66200013c60201b60201c565b6200014460201b60201c565b6040518060800160405280605181526020016200303b6051913960079080519060200190620001039291906200020a565b506040518060800160405280605d815260200162002fde605d913960089080519060200190620001359291906200020a565b506200031e565b600033905090565b6000600660009054906101000a900473ffffffffffffffffffffffffffffffffffffffff16905081600660006101000a81548173ffffffffffffffffffffffffffffffffffffffff021916908373ffffffffffffffffffffffffffffffffffffffff1602179055508173ffffffffffffffffffffffffffffffffffffffff168173ffffffffffffffffffffffffffffffffffffffff167f8be0079c531659141344cd1fd0a4f28419497f9722a3daafe3b4186f6b6457e060405160405180910390a35050565b8280546200021890620002e9565b90600052602060002090601f0160209004810192826200023c576000855562000288565b82601f106200025757805160ff191683800117855562000288565b8280016001018555821562000288579182015b82811115620002875782518255916020019190600101906200026a565b5b5090506200029791906200029b565b5090565b5b80821115620002b65760008160009055506001016200029c565b5090565b7f4e487b7100000000000000000000000000000000000000000000000000000000600052602260045260246000fd5b600060028204905060018216806200030257607f821691505b602082108103620003185762000317620002ba565b5b50919050565b612cb0806200032e6000396000f3fe608060405234801561001057600080fd5b50600436106101215760003560e01c8063715018a6116100ad578063b88d4fde11610071578063b88d4fde146102f2578063c87b56dd1461030e578063e8a3d4851461033e578063e985e9c51461035c578063f2fde38b1461038c57610121565b8063715018a6146102745780638da5cb5b1461027e57806395d89b411461029c578063a0712d68146102ba578063a22cb465146102d657610121565b806313af4035116100f457806313af4035146101c057806323b872dd146101dc57806342842e0e146101f85780636352211e1461021457806370a082311461024457610121565b806301ffc9a71461012657806306fdde0314610156578063081812fc14610174578063095ea7b3146101a4575b600080fd5b610140600480360381019061013b9190611a87565b6103a8565b60405161014d9190611acf565b60405180910390f35b61015e61048a565b60405161016b9190611b83565b60405180910390f35b61018e60048036038101906101899190611bdb565b61051c565b60405161019b9190611c49565b60405180910390f35b6101be60048036038101906101b99190611c90565b6105a1565b005b6101da60048036038101906101d59190611cd0565b6106b8565b005b6101f660048036038101906101f19190611cfd565b610740565b005b610212600480360381019061020d9190611cfd565b6107a0565b005b61022e60048036038101906102299190611bdb565b6107c0565b60405161023b9190611c49565b60405180910390f35b61025e60048036038101906102599190611cd0565b610871565b60405161026b9190611d5f565b60405180910390f35b61027c610928565b005b6102866109b0565b6040516102939190611c49565b60405180910390f35b6102a46109da565b6040516102b19190611b83565b60405180910390f35b6102d460048036038101906102cf9190611bdb565b610a6c565b005b6102f060048036038101906102eb9190611da6565b610afc565b005b61030c60048036038101906103079190611f1b565b610b12565b005b61032860048036038101906103239190611bdb565b610b74565b6040516103359190611b83565b60405180910390f35b610346610ba8565b6040516103539190611b83565b60405180910390f35b61037660048036038101906103719190611f9e565b610c3a565b6040516103839190611acf565b60405180910390f35b6103a660048036038101906103a19190611cd0565b610cce565b005b60007f80ac58cd000000000000000000000000000000000000000000000000000000007bffffffffffffffffffffffffffffffffffffffffffffffffffffffff1916827bffffffffffffffffffffffffffffffffffffffffffffffffffffffff1916148061047357507f5b5e139f000000000000000000000000000000000000000000000000000000007bffffffffffffffffffffffffffffffffffffffffffffffffffffffff1916827bffffffffffffffffffffffffffffffffffffffffffffffffffffffff1916145b80610483575061048282610dc5565b5b9050919050565b6060600080546104999061200d565b80601f01602080910402602001604051908101604052809291908181526020018280546104c59061200d565b80156105125780601f106104e757610100808354040283529160200191610512565b820191906000526020600020905b8154815290600101906020018083116104f557829003601f168201915b5050505050905090565b600061052782610e2f565b610566576040517f08c379a000000000000000000000000000000000000000000000000000000000815260040161055d906120b0565b60405180910390fd5b6004600083815260200190815260200160002060009054906101000a900473ffffffffffffffffffffffffffffffffffffffff169050919050565b60006105ac826107c0565b90508073ffffffffffffffffffffffffffffffffffffffff168373ffffffffffffffffffffffffffffffffffffffff160361061c576040517f08c379a000000000000000000000000000000000000000000000000000000000815260040161061390612142565b60405180910390fd5b8073ffffffffffffffffffffffffffffffffffffffff1661063b610e9b565b73ffffffffffffffffffffffffffffffffffffffff16148061066a575061066981610664610e9b565b610c3a565b5b6106a9576040517f08c379a00000000000000000000000000000000000000000000000000000000081526004016106a0906121d4565b60405180910390fd5b6106b38383610ea3565b505050565b6106c0610e9b565b73ffffffffffffffffffffffffffffffffffffffff166106de6109b0565b73ffffffffffffffffffffffffffffffffffffffff1614610734576040517f08c379a000000000000000000000000000000000000000000000000000000000815260040161072b90612240565b60405180910390fd5b61073d81610cce565b50565b61075161074b610e9b565b82610f5c565b610790576040517f08c379a0000000000000000000000000000000000000000000000000000000008152600401610787906122d2565b60405180910390fd5b61079b83838361103a565b505050565b6107bb83838360405180602001604052806000815250610b12565b505050565b6000806002600084815260200190815260200160002060009054906101000a900473ffffffffffffffffffffffffffffffffffffffff169050600073ffffffffffffffffffffffffffffffffffffffff168173ffffffffffffffffffffffffffffffffffffffff1603610868576040517f08c379a000000000000000000000000000000000000000000000000000000000815260040161085f90612364565b60405180910390fd5b80915050919050565b60008073ffffffffffffffffffffffffffffffffffffffff168273ffffffffffffffffffffffffffffffffffffffff16036108e1576040517f08c379a00000000000000000000000000000000000000000000000000000000081526004016108d8906123f6565b60405180910390fd5b600360008373ffffffffffffffffffffffffffffffffffffffff1673ffffffffffffffffffffffffffffffffffffffff168152602001908152602001600020549050919050565b610930610e9b565b73ffffffffffffffffffffffffffffffffffffffff1661094e6109b0565b73ffffffffffffffffffffffffffffffffffffffff16146109a4576040517f08c379a000000000000000000000000000000000000000000000000000000000815260040161099b90612240565b60405180910390fd5b6109ae60006112a0565b565b6000600660009054906101000a900473ffffffffffffffffffffffffffffffffffffffff16905090565b6060600180546109e99061200d565b80601f0160208091040260200160405190810160405280929190818152602001828054610a159061200d565b8015610a625780601f10610a3757610100808354040283529160200191610a62565b820191906000526020600020905b815481529060010190602001808311610a4557829003601f168201915b5050505050905090565b610a74610e9b565b73ffffffffffffffffffffffffffffffffffffffff16610a926109b0565b73ffffffffffffffffffffffffffffffffffffffff1614610ae8576040517f08c379a0000000000000000000000000000000000000000000000000000000008152600401610adf90612240565b60405180910390fd5b610af9610af36109b0565b82611366565b50565b610b0e610b07610e9b565b838361153f565b5050565b610b23610b1d610e9b565b83610f5c565b610b62576040517f08c379a0000000000000000000000000000000000000000000000000000000008152600401610b59906122d2565b60405180910390fd5b610b6e848484846116ab565b50505050565b60606008610b8183611707565b604051602001610b9292919061257e565b6040516020818303038152906040529050919050565b606060078054610bb79061200d565b80601f0160208091040260200160405190810160405280929190818152602001828054610be39061200d565b8015610c305780601f10610c0557610100808354040283529160200191610c30565b820191906000526020600020905b815481529060010190602001808311610c1357829003601f168201915b5050505050905090565b6000600560008473ffffffffffffffffffffffffffffffffffffffff1673ffffffffffffffffffffffffffffffffffffffff16815260200190815260200160002060008373ffffffffffffffffffffffffffffffffffffffff1673ffffffffffffffffffffffffffffffffffffffff16815260200190815260200160002060009054906101000a900460ff16905092915050565b610cd6610e9b565b73ffffffffffffffffffffffffffffffffffffffff16610cf46109b0565b73ffffffffffffffffffffffffffffffffffffffff1614610d4a576040517f08c379a0000000000000000000000000000000000000000000000000000000008152600401610d4190612240565b60405180910390fd5b600073ffffffffffffffffffffffffffffffffffffffff168173ffffffffffffffffffffffffffffffffffffffff1603610db9576040517f08c379a0000000000000000000000000000000000000000000000000000000008152600401610db09061262a565b60405180910390fd5b610dc2816112a0565b50565b60007f01ffc9a7000000000000000000000000000000000000000000000000000000007bffffffffffffffffffffffffffffffffffffffffffffffffffffffff1916827bffffffffffffffffffffffffffffffffffffffffffffffffffffffff1916149050919050565b60008073ffffffffffffffffffffffffffffffffffffffff166002600084815260200190815260200160002060009054906101000a900473ffffffffffffffffffffffffffffffffffffffff1673ffffffffffffffffffffffffffffffffffffffff1614159050919050565b600033905090565b816004600083815260200190815260200160002060006101000a81548173ffffffffffffffffffffffffffffffffffffffff021916908373ffffffffffffffffffffffffffffffffffffffff160217905550808273ffffffffffffffffffffffffffffffffffffffff16610f16836107c0565b73ffffffffffffffffffffffffffffffffffffffff167f8c5be1e5ebec7d5bd14f71427d1e84f3dd0314c0f7b2291e5b200ac8c7c3b92560405160405180910390a45050565b6000610f6782610e2f565b610fa6576040517f08c379a0000000000000000000000000000000000000000000000000000000008152600401610f9d906126bc565b60405180910390fd5b6000610fb1836107c0565b90508073ffffffffffffffffffffffffffffffffffffffff168473ffffffffffffffffffffffffffffffffffffffff161480610ff35750610ff28185610c3a565b5b8061103157508373ffffffffffffffffffffffffffffffffffffffff166110198461051c565b73ffffffffffffffffffffffffffffffffffffffff16145b91505092915050565b8273ffffffffffffffffffffffffffffffffffffffff1661105a826107c0565b73ffffffffffffffffffffffffffffffffffffffff16146110b0576040517f08c379a00000000000000000000000000000000000000000000000000000000081526004016110a79061274e565b60405180910390fd5b600073ffffffffffffffffffffffffffffffffffffffff168273ffffffffffffffffffffffffffffffffffffffff160361111f576040517f08c379a0000000000000000000000000000000000000000000000000000000008152600401611116906127e0565b60405180910390fd5b61112a838383611867565b611135600082610ea3565b6001600360008573ffffffffffffffffffffffffffffffffffffffff1673ffffffffffffffffffffffffffffffffffffffff1681526020019081526020016000206000828254611185919061282f565b925050819055506001600360008473ffffffffffffffffffffffffffffffffffffffff1673ffffffffffffffffffffffffffffffffffffffff16815260200190815260200160002060008282546111dc9190612863565b92505081905550816002600083815260200190815260200160002060006101000a81548173ffffffffffffffffffffffffffffffffffffffff021916908373ffffffffffffffffffffffffffffffffffffffff160217905550808273ffffffffffffffffffffffffffffffffffffffff168473ffffffffffffffffffffffffffffffffffffffff167fddf252ad1be2c89b69c2b068fc378daa952ba7f163c4a11628f55a4df523b3ef60405160405180910390a461129b83838361186c565b505050565b6000600660009054906101000a900473ffffffffffffffffffffffffffffffffffffffff16905081600660006101000a81548173ffffffffffffffffffffffffffffffffffffffff021916908373ffffffffffffffffffffffffffffffffffffffff1602179055508173ffffffffffffffffffffffffffffffffffffffff168173ffffffffffffffffffffffffffffffffffffffff167f8be0079c531659141344cd1fd0a4f28419497f9722a3daafe3b4186f6b6457e060405160405180910390a35050565b600073ffffffffffffffffffffffffffffffffffffffff168273ffffffffffffffffffffffffffffffffffffffff16036113d5576040517f08c379a00000000000000000000000000000000000000000000000000000000081526004016113cc90612905565b60405180910390fd5b6113de81610e2f565b1561141e576040517f08c379a000000000000000000000000000000000000000000000000000000000815260040161141590612971565b60405180910390fd5b61142a60008383611867565b6001600360008473ffffffffffffffffffffffffffffffffffffffff1673ffffffffffffffffffffffffffffffffffffffff168152602001908152602001600020600082825461147a9190612863565b92505081905550816002600083815260200190815260200160002060006101000a81548173ffffffffffffffffffffffffffffffffffffffff021916908373ffffffffffffffffffffffffffffffffffffffff160217905550808273ffffffffffffffffffffffffffffffffffffffff16600073ffffffffffffffffffffffffffffffffffffffff167fddf252ad1be2c89b69c2b068fc378daa952ba7f163c4a11628f55a4df523b3ef60405160405180910390a461153b6000838361186c565b5050565b8173ffffffffffffffffffffffffffffffffffffffff168373ffffffffffffffffffffffffffffffffffffffff16036115ad576040517f08c379a00000000000000000000000000000000000000000000000000000000081526004016115a4906129dd565b60405180910390fd5b80600560008573ffffffffffffffffffffffffffffffffffffffff1673ffffffffffffffffffffffffffffffffffffffff16815260200190815260200160002060008473ffffffffffffffffffffffffffffffffffffffff1673ffffffffffffffffffffffffffffffffffffffff16815260200190815260200160002060006101000a81548160ff0219169083151502179055508173ffffffffffffffffffffffffffffffffffffffff168373ffffffffffffffffffffffffffffffffffffffff167f17307eab39ab6107e8899845ad3d59bd9653f200f220920489ca2b5937696c318360405161169e9190611acf565b60405180910390a3505050565b6116b684848461103a565b6116c284848484611871565b611701576040517f08c379a00000000000000000000000000000000000000000000000000000000081526004016116f890612a6f565b60405180910390fd5b50505050565b60606000820361174e576040518060400160405280600181526020017f30000000000000000000000000000000000000000000000000000000000000008152509050611862565b600082905060005b6000821461178057808061176990612a8f565b915050600a826117799190612b06565b9150611756565b60008167ffffffffffffffff81111561179c5761179b611df0565b5b6040519080825280601f01601f1916602001820160405280156117ce5781602001600182028036833780820191505090505b5090505b6000851461185b576001826117e7919061282f565b9150600a856117f69190612b37565b60306118029190612863565b60f81b81838151811061181857611817612b68565b5b60200101907effffffffffffffffffffffffffffffffffffffffffffffffffffffffffffff1916908160001a905350600a856118549190612b06565b94506117d2565b8093505050505b919050565b505050565b505050565b60006118928473ffffffffffffffffffffffffffffffffffffffff166119f8565b156119eb578373ffffffffffffffffffffffffffffffffffffffff1663150b7a026118bb610e9b565b8786866040518563ffffffff1660e01b81526004016118dd9493929190612bec565b6020604051808303816000875af192505050801561191957506040513d601f19601f820116820180604052508101906119169190612c4d565b60015b61199b573d8060008114611949576040519150601f19603f3d011682016040523d82523d6000602084013e61194e565b606091505b506000815103611993576040517f08c379a000000000000000000000000000000000000000000000000000000000815260040161198a90612a6f565b60405180910390fd5b805181602001fd5b63150b7a0260e01b7bffffffffffffffffffffffffffffffffffffffffffffffffffffffff1916817bffffffffffffffffffffffffffffffffffffffffffffffffffffffff1916149150506119f0565b600190505b949350505050565b6000808273ffffffffffffffffffffffffffffffffffffffff163b119050919050565b6000604051905090565b600080fd5b600080fd5b60007fffffffff0000000000000000000000000000000000000000000000000000000082169050919050565b611a6481611a2f565b8114611a6f57600080fd5b50565b600081359050611a8181611a5b565b92915050565b600060208284031215611a9d57611a9c611a25565b5b6000611aab84828501611a72565b91505092915050565b60008115159050919050565b611ac981611ab4565b82525050565b6000602082019050611ae46000830184611ac0565b92915050565b600081519050919050565b600082825260208201905092915050565b60005b83811015611b24578082015181840152602081019050611b09565b83811115611b33576000848401525b50505050565b6000601f19601f8301169050919050565b6000611b5582611aea565b611b5f8185611af5565b9350611b6f818560208601611b06565b611b7881611b39565b840191505092915050565b60006020820190508181036000830152611b9d8184611b4a565b905092915050565b6000819050919050565b611bb881611ba5565b8114611bc357600080fd5b50565b600081359050611bd581611baf565b92915050565b600060208284031215611bf157611bf0611a25565b5b6000611bff84828501611bc6565b91505092915050565b600073ffffffffffffffffffffffffffffffffffffffff82169050919050565b6000611c3382611c08565b9050919050565b611c4381611c28565b82525050565b6000602082019050611c5e6000830184611c3a565b92915050565b611c6d81611c28565b8114611c7857600080fd5b50565b600081359050611c8a81611c64565b92915050565b60008060408385031215611ca757611ca6611a25565b5b6000611cb585828601611c7b565b9250506020611cc685828601611bc6565b9150509250929050565b600060208284031215611ce657611ce5611a25565b5b6000611cf484828501611c7b565b91505092915050565b600080600060608486031215611d1657611d15611a25565b5b6000611d2486828701611c7b565b9350506020611d3586828701611c7b565b9250506040611d4686828701611bc6565b9150509250925092565b611d5981611ba5565b82525050565b6000602082019050611d746000830184611d50565b92915050565b611d8381611ab4565b8114611d8e57600080fd5b50565b600081359050611da081611d7a565b92915050565b60008060408385031215611dbd57611dbc611a25565b5b6000611dcb85828601611c7b565b9250506020611ddc85828601611d91565b9150509250929050565b600080fd5b600080fd5b7f4e487b7100000000000000000000000000000000000000000000000000000000600052604160045260246000fd5b611e2882611b39565b810181811067ffffffffffffffff82111715611e4757611e46611df0565b5b80604052505050565b6000611e5a611a1b565b9050611e668282611e1f565b919050565b600067ffffffffffffffff821115611e8657611e85611df0565b5b611e8f82611b39565b9050602081019050919050565b82818337600083830152505050565b6000611ebe611eb984611e6b565b611e50565b905082815260208101848484011115611eda57611ed9611deb565b5b611ee5848285611e9c565b509392505050565b600082601f830112611f0257611f01611de6565b5b8135611f12848260208601611eab565b91505092915050565b60008060008060808587031215611f3557611f34611a25565b5b6000611f4387828801611c7b565b9450506020611f5487828801611c7b565b9350506040611f6587828801611bc6565b925050606085013567ffffffffffffffff811115611f8657611f85611a2a565b5b611f9287828801611eed565b91505092959194509250565b60008060408385031215611fb557611fb4611a25565b5b6000611fc385828601611c7b565b9250506020611fd485828601611c7b565b9150509250929050565b7f4e487b7100000000000000000000000000000000000000000000000000000000600052602260045260246000fd5b6000600282049050600182168061202557607f821691505b60208210810361203857612037611fde565b5b50919050565b7f4552433732313a20617070726f76656420717565727920666f72206e6f6e657860008201527f697374656e7420746f6b656e0000000000000000000000000000000000000000602082015250565b600061209a602c83611af5565b91506120a58261203e565b604082019050919050565b600060208201905081810360008301526120c98161208d565b9050919050565b7f4552433732313a20617070726f76616c20746f2063757272656e74206f776e6560008201527f7200000000000000000000000000000000000000000000000000000000000000602082015250565b600061212c602183611af5565b9150612137826120d0565b604082019050919050565b6000602082019050818103600083015261215b8161211f565b9050919050565b7f4552433732313a20617070726f76652063616c6c6572206973206e6f74206f7760008201527f6e6572206e6f7220617070726f76656420666f7220616c6c0000000000000000602082015250565b60006121be603883611af5565b91506121c982612162565b604082019050919050565b600060208201905081810360008301526121ed816121b1565b9050919050565b7f4f776e61626c653a2063616c6c6572206973206e6f7420746865206f776e6572600082015250565b600061222a602083611af5565b9150612235826121f4565b602082019050919050565b600060208201905081810360008301526122598161221d565b9050919050565b7f4552433732313a207472616e736665722063616c6c6572206973206e6f74206f60008201527f776e6572206e6f7220617070726f766564000000000000000000000000000000602082015250565b60006122bc603183611af5565b91506122c782612260565b604082019050919050565b600060208201905081810360008301526122eb816122af565b9050919050565b7f4552433732313a206f776e657220717565727920666f72206e6f6e657869737460008201527f656e7420746f6b656e0000000000000000000000000000000000000000000000602082015250565b600061234e602983611af5565b9150612359826122f2565b604082019050919050565b6000602082019050818103600083015261237d81612341565b9050919050565b7f4552433732313a2062616c616e636520717565727920666f7220746865207a6560008201527f726f206164647265737300000000000000000000000000000000000000000000602082015250565b60006123e0602a83611af5565b91506123eb82612384565b604082019050919050565b6000602082019050818103600083015261240f816123d3565b9050919050565b600081905092915050565b60008190508160005260206000209050919050565b600081546124438161200d565b61244d8186612416565b945060018216600081146124685760018114612479576124ac565b60ff198316865281860193506124ac565b61248285612421565b60005b838110156124a457815481890152600182019150602081019050612485565b838801955050505b50505092915050565b7f2f00000000000000000000000000000000000000000000000000000000000000600082015250565b60006124eb600183612416565b91506124f6826124b5565b600182019050919050565b600061250c82611aea565b6125168185612416565b9350612526818560208601611b06565b80840191505092915050565b7f2e6a736f6e000000000000000000000000000000000000000000000000000000600082015250565b6000612568600583612416565b915061257382612532565b600582019050919050565b600061258a8285612436565b9150612595826124de565b91506125a18284612501565b91506125ac8261255b565b91508190509392505050565b7f4f776e61626c653a206e6577206f776e657220697320746865207a65726f206160008201527f6464726573730000000000000000000000000000000000000000000000000000602082015250565b6000612614602683611af5565b915061261f826125b8565b604082019050919050565b6000602082019050818103600083015261264381612607565b9050919050565b7f4552433732313a206f70657261746f7220717565727920666f72206e6f6e657860008201527f697374656e7420746f6b656e0000000000000000000000000000000000000000602082015250565b60006126a6602c83611af5565b91506126b18261264a565b604082019050919050565b600060208201905081810360008301526126d581612699565b9050919050565b7f4552433732313a207472616e736665722066726f6d20696e636f72726563742060008201527f6f776e6572000000000000000000000000000000000000000000000000000000602082015250565b6000612738602583611af5565b9150612743826126dc565b604082019050919050565b600060208201905081810360008301526127678161272b565b9050919050565b7f4552433732313a207472616e7366657220746f20746865207a65726f2061646460008201527f7265737300000000000000000000000000000000000000000000000000000000602082015250565b60006127ca602483611af5565b91506127d58261276e565b604082019050919050565b600060208201905081810360008301526127f9816127bd565b9050919050565b7f4e487b7100000000000000000000000000000000000000000000000000000000600052601160045260246000fd5b600061283a82611ba5565b915061284583611ba5565b92508282101561285857612857612800565b5b828203905092915050565b600061286e82611ba5565b915061287983611ba5565b9250827fffffffffffffffffffffffffffffffffffffffffffffffffffffffffffffffff038211156128ae576128ad612800565b5b828201905092915050565b7f4552433732313a206d696e7420746f20746865207a65726f2061646472657373600082015250565b60006128ef602083611af5565b91506128fa826128b9565b602082019050919050565b6000602082019050818103600083015261291e816128e2565b9050919050565b7f4552433732313a20746f6b656e20616c7265616479206d696e74656400000000600082015250565b600061295b601c83611af5565b915061296682612925565b602082019050919050565b6000602082019050818103600083015261298a8161294e565b9050919050565b7f4552433732313a20617070726f766520746f2063616c6c657200000000000000600082015250565b60006129c7601983611af5565b91506129d282612991565b602082019050919050565b600060208201905081810360008301526129f6816129ba565b9050919050565b7f4552433732313a207472616e7366657220746f206e6f6e20455243373231526560008201527f63656976657220696d706c656d656e7465720000000000000000000000000000602082015250565b6000612a59603283611af5565b9150612a64826129fd565b604082019050919050565b60006020820190508181036000830152612a8881612a4c565b9050919050565b6000612a9a82611ba5565b91507fffffffffffffffffffffffffffffffffffffffffffffffffffffffffffffffff8203612acc57612acb612800565b5b600182019050919050565b7f4e487b7100000000000000000000000000000000000000000000000000000000600052601260045260246000fd5b6000612b1182611ba5565b9150612b1c83611ba5565b925082612b2c57612b2b612ad7565b5b828204905092915050565b6000612b4282611ba5565b9150612b4d83611ba5565b925082612b5d57612b5c612ad7565b5b828206905092915050565b7f4e487b7100000000000000000000000000000000000000000000000000000000600052603260045260246000fd5b600081519050919050565b600082825260208201905092915050565b6000612bbe82612b97565b612bc88185612ba2565b9350612bd8818560208601611b06565b612be181611b39565b840191505092915050565b6000608082019050612c016000830187611c3a565b612c0e6020830186611c3a565b612c1b6040830185611d50565b8181036060830152612c2d8184612bb3565b905095945050505050565b600081519050612c4781611a5b565b92915050565b600060208284031215612c6357612c62611a25565b5b6000612c7184828501612c38565b9150509291505056fea2646970667358221220fe52c92ce70437d4b628ac2fa74f8dcadfebb561d876240ecbd5e99a3bb0c83064736f6c634300080d003368747470733a2f2f676174657761792e70696e6174612e636c6f75642f697066732f62616679626569616c773473326867367861756d7a78626e6272636e6b7572786a6e367a336270667a676a6979347261697774753336366269623468747470733a2f2f676174657761792e70696e6174612e636c6f75642f697066732f516d527978324d32586f434c734d6a7a44783533354d464e78337167564b364659753862736d6a6474777471317a2f",
  "immutableReferences": {},
  "source": "//SPDX-License-Identifier: UNLICENSED\r\n\r\npragma solidity ^0.8.0;\r\n\r\nimport \"../../node_modules/@openzeppelin/contracts/token/ERC721/ERC721.sol\";\r\nimport \"../../node_modules/@openzeppelin/contracts/access/Ownable.sol\";\r\n\r\ncontract collection is ERC721, Ownable {\r\n\r\n    string _contractURI;\r\n    string baseURI;\r\n\r\n    constructor() ERC721(\"MJ - Collection\", \"MJC\"){\r\n        _contractURI = \"https://gateway.pinata.cloud/ipfs/QmRyx2M2XoCLsMjzDx535MFNx3qgVK6FYu8bsmjdtwtq1z/\"; //MODIFY LINK\r\n        baseURI = \"https://gateway.pinata.cloud/ipfs/bafybeialw4s2hg6xaumzxbnbrcnkurxjn6z3bpfzgjiy4raiwtu366bib4\";\r\n    }\r\n\r\n    //mint\r\n    function mint(uint256 tokenId) public onlyOwner() {\r\n        _mint(owner(), tokenId); //replace owner to MJ account\r\n    }\r\n\r\n\r\n\r\n    //transferOwnership\r\n    function setOwner(address newOwner) public onlyOwner() {\r\n        transferOwnership(newOwner);\r\n    }\r\n\r\n    // function setURI() public onlyOwner{\r\n    //     return \r\n    // } \r\n\r\n    function tokenURI(uint256 tokenId) public view virtual override returns (string memory) {\r\n        return string(abi.encodePacked(baseURI,\"/\" , Strings.toString(tokenId), \".json\"));\r\n    }\r\n\r\n    function contractURI() public view returns(string memory){\r\n        return _contractURI;\r\n    }\r\n}",
  "sourcePath": "D:\\Documentos\\Trabajos\\MariaJimenezProject\\src\\contracts\\collection.sol",
  "compiler": {
    "name": "solc",
    "version": "0.8.13+commit.abaa5c0e.Emscripten.clang"
  },
  "schemaVersion": "3.4.7",
  "updatedAt": "2022-07-07T11:43:24.561Z",
  "networkType": "ethereum",
  "devdoc": {
    "kind": "dev",
    "methods": {
      "approve(address,uint256)": {
        "details": "See {IERC721-approve}."
      },
      "balanceOf(address)": {
        "details": "See {IERC721-balanceOf}."
      },
      "getApproved(uint256)": {
        "details": "See {IERC721-getApproved}."
      },
      "isApprovedForAll(address,address)": {
        "details": "See {IERC721-isApprovedForAll}."
      },
      "name()": {
        "details": "See {IERC721Metadata-name}."
      },
      "owner()": {
        "details": "Returns the address of the current owner."
      },
      "ownerOf(uint256)": {
        "details": "See {IERC721-ownerOf}."
      },
      "renounceOwnership()": {
        "details": "Leaves the contract without owner. It will not be possible to call `onlyOwner` functions anymore. Can only be called by the current owner. NOTE: Renouncing ownership will leave the contract without an owner, thereby removing any functionality that is only available to the owner."
      },
      "safeTransferFrom(address,address,uint256)": {
        "details": "See {IERC721-safeTransferFrom}."
      },
      "safeTransferFrom(address,address,uint256,bytes)": {
        "details": "See {IERC721-safeTransferFrom}."
      },
      "setApprovalForAll(address,bool)": {
        "details": "See {IERC721-setApprovalForAll}."
      },
      "supportsInterface(bytes4)": {
        "details": "See {IERC165-supportsInterface}."
      },
      "symbol()": {
        "details": "See {IERC721Metadata-symbol}."
      },
      "tokenURI(uint256)": {
        "details": "See {IERC721Metadata-tokenURI}."
      },
      "transferFrom(address,address,uint256)": {
        "details": "See {IERC721-transferFrom}."
      },
      "transferOwnership(address)": {
        "details": "Transfers ownership of the contract to a new account (`newOwner`). Can only be called by the current owner."
      }
    },
    "version": 1
  },
  "userdoc": {
    "kind": "user",
    "methods": {},
    "version": 1
  }
}